:020000020000FC
:100000000FEF0DBF01E20EBF0E942A00B2E0BF93C6
:10001000A0E0AF93D2E0DF93C8ECCF930E944300FF
:10002000B2E0BF93A8E2AF93D2E0DF93CBEDCF93E2
:100030000E944300F3E0ECE2B2E0B293A8ECA2939A
:10004000B2E0B293ABEDA2930E9469000E94580007
:100050000C942800BF93AF93DF93CF93B2E0A0E05E
:10006000D1E0C0E1659169936623E1F7B2E0C8E2AF
:10007000D1E0C2E2659169936623E1F7CF91DF9108
:10008000AF91BF9108951F912F91BF93AF93FF93AD
:10009000EF934F9342E1A40F6E9169931A95E1F7A4
:1000A0004F91CF91DF91AF91BF912F931F930895FF
:1000B00000E00093800001E00093810001E00093E4
:1000C0006F000FEF0093850000E3009384007894A5
:1000D0000895CF93DF93AF93BF934F93A191B191C5
:1000E000D3E0C6E242E16D9169934A954030D9F779
:1000F000A191B191D3E0C4E142E16D9169934A9538
:100100004030D9F74F91BF91AF91DF91CF910895D2
:1001100041686D6564202020202041686D65642061
:100120002000435343202020202032333020202041
:040130002041350035
:00000001FF
